:400000000080002011000000E1060000E106000080B500AF024A034B1B68136000F06AFBBC760040FA4600400100000000200040010000000020014001000000004800403A
:400040000100000000480140010000000100000008000223000008760800032300001076080004230000287608000523000030760500062300002070050007230000307065
:4000800005000823000060700500FE230000707010000A220000005140000B22000030511000FE220000F05100080D220000000080010E220000000A00020F220000000E1B
:4000C00000041022000000140005112200000040800012220000004600031322000000470001FE220000004C07001523000010520600162300006052200017230000706498
:400100002000FE2300007065800019230000000880001A230000800880001B230000000C80001C230000800C80001D230000001880001E230000801880001F230000001A7E
:40014000800020230000801A10002123000010501000222300000050800023230000004D800024230000804D800025230000804680002623000000458000272300008045F7
:40018000800028230000001B800029230000801B80002A230000001980002B230000801980002C230000000980002D230000800980002E230000800B80002F230000000D39
:4001C0008000FE230000800D10B5054C237833B9044B13B10448AFF300800123237010BD4881FF1F00000000140D0000084B10B51BB108490848AFF300800848036803B909
:4002000010BD074B002BFBD0BDE81040184700BF000000004C81FF1F140D0000C880FF1F0000000080B5ADF5047D00AF4FF47A7000F0F4FA62B600F09BFB0023A7F80E3272
:4002400000F00EFB42F22833C7F808320123C7F8043200F0EFFB0346C7F80032D7F80032002BF6DDD7F800320D2B2BD1B7F80E325A1CA7F80E221A463B46002199543B46F8
:40028000184600F013FC1C4800F010FC3B46184600F074FCC7F80802D7F8083242F2214293420BDCD7F8083242F2FC12934205DDD7F808329BB2184600F04AFB0023A7F870
:4002C0000E32C6E7D7F800322F2BC2DDD7F80032392BBEDCB7F80E32B3F5FF7FB9D8B7F80E325A1CA7F80E221A46D7F80032D9B23B469954ADE700BF180D000080B584B003
:4003000000AFF860B9607A607A68B968F86800F065FC00BF1037BD4680BD00BF80B483B000AF0346FB71FEE780B483B000AF434B00221A60424B10221A70424B01221A7097
:40034000414B00221A70414B4FF4BC721A80404B01221A703F4B03221A703F4B3F4A92B21A803F4B47F608021A803E4B00221A803D4B4FF480421A803C4B09221A703C4BB2
:400380000C221A703B4B14221A703B4B18221A70BFF35F8F394B01221A70BFF35F8F00BF2A4B1B889BB2002BFAD100237B600DE07B68DA00324B13441946324A7B6852F8E6
:4003C00023309BB20B807B6801337B607B682E2BEED9BFF35F8F294B01221A70BFF35F8F00BF294B1B78DBB203F00103002BF8D100BF264B1B78DBB203F00103002BF8D103
:4004000000BF234B1B78DBB203F00103002BF8D100BF204B1B78DBB203F00103002BF8D100BF1D4B1B78DBB203F00103002BF8D100BF0C37BD4680BC704700BF6881FF1F5F
:400440000076004010700040197000400078004002780040037800400478004050000000067800400476004006760040297000403970004069700040797000401470004008
:400480000C7800401C0D0000187000402870004038700040687000407870004080B582B000AF334B19221A80324B18221A70324B31221A80314B18221A70314B02221A7009
:4004C0004FF0402308221A702E4B03221A702E4B2E4A1278D2B21A702D4B08221A802D4B41F251221A800023FB7019237B6014E0FB785B00DAB2284B1B78DBB203F0010384
:40050000DBB21343DBB203F00303FB704FF4F07000F00AFB7B68013B7B607B68002B02D0FB78032BE4D17B68002B02D10320FFF7F5FE1A4B4FF480721A80184B07221A70E8
:40054000174B00221A70174B48221A70134B00221A70154B02221A70144A144B1B78DBB243F00303DBB2137000BF0837BD4680BD804000408240004084400040864000408F
:400580000043004000420040A14600400801004922420040204200402542004004400040064000400840004001400040A243004080B483B000AF0B4B1B78FB710A4AFB7965
:4005C00003F00703DBB21370084AFB791B09DBB21370074B44221A7000BF0C37BD4680BC704700BFCF0100496E5800406F5800407658004080B500AF72B62A4A294B1B7840
:40060000DBB243F00403DBB21370FFF78DFE264A254B1B78DBB243F00203DBB21370234A224B1B78DBB243F00203DBB21370204A1F4B1B78DBB243F04003DBB213701D4AF7
:400640001C4B1B78DBB243F01003DBB213700A2219491A48FFF752FE082219491948FFF74DFE0A2218491948FFF748FE184A184B1B78DBB243F00803DBB21370154B6022FA
:400680001A70FFF70BFF134B80221A70124B01221A70FFF78DFF0E2205491048FFF72EFE00BF80BDE84600400350014013500140A0430040C2430040700B0048C051004084
:4006C0007C0B004812510040840B004820510040224300400048004004000840B043004080B500AF00F04EFA03461B680C2B00D1FEE7FEE780B586B000AF224B7B61224BCA
:400700003B61204B7B6135E03B691B68FB603B695B68BB603B699B683B6000237B600CE0FB681A68BB681A60BB680433BB60FB680433FB607B6804337B607A683B689A424F
:40074000EED13B69DB683B6000237B6008E0BB6800221A60BB680433BB607B6804337B607A683B689A42F2D13B6910333B617B69013B7B617B69002BC6D100F009FAFFF7F7
:4007800051FDFEE701000000000F000080B582B000AF184B184A1A60184A184B1B6843F40073136000237B600FE07B68032B04D8134A7B6852F8233000E0124B12497A680B
:4007C00041F822307B6801337B607B682F2BECD90E4B1B78DAB20E4B1A700E4B0A4A1A60FFF708FF0C4B00221A6000BF0837BD4680BD00BF0CED00E00004FA0514ED00E04E
:4008000000000000E10600000080FF1FBC760040C480FF1F08ED00E0C080FF1F80B582B000AF786008E00C4B1B68184600F07CF97B68A3F500437B607B68B3F5004FF2D87C
:40084000064B1B687A6802FB03F3184600F06CF900BF0837BD4680BDD880FF1FD080FF1F80B500AF064B1B78002B04D100F00AF8034B01221A7000F03BF800BF80BD00BF67
:400880006C81FF1F80B582B000AF164B1B78DBB223F03F03FB71134AFB7943F00B03DBB21370114A104B1B78DBB243F00103DBB213700E4A0D4B1B78DBB243F00103DBB202
:4008C00013704FF4165000F023F84FF4165000F02FF842F2283000F03BF800BF0837BD4680BD00BF7D6400409C6400409D64004080B400AF054A054B1B78DBB263F07F033C
:40090000DBB2137000BFBD4680BC70477D64004080B483B000AF0346FB80044AFB88138000BF0C37BD4680BC704700BF1868004080B483B000AF0346FB80044AFB881380DE
:4009400000BF0C37BD4680BC704700BF9868004080B483B000AF0346FB80044AFB88138000BF0C37BD4680BC704700BF5868004080B500AF064B1B78002B04D100F00AF8D1
:40098000034B01221A7000F025F800BF80BD00BF6D81FF1F80B400AF094B72221A70094B20221A70084B06221A70084B47221A70074B00221A7000BFBD4680BC704700BF36
:4009C000896400408A6500402B6500403B6500408864004080B582B000AF00F0C4F80346FB71114A104B1B78DBB243F02003DBB213700E4A0D4B1B78DBB243F01003DBB269
:400A000013700B4A0A4B1B78DBB243F01003DBB2137000F06DF8FB79184600F0A8F800BF0837BD4680BD00BF996400409A6500409864004080B483B000AF0023FB710C4BAB
:400A40001B78BB71BB7903F02003002B09D0094B1B78FB71BB7903F01E03002B01D00023FB71FB7918460C37BD4680BC704700BF6A6500404A65004080B483B000AF03461C
:400A8000FB7100BF074B1B78DBB203F00403002BF8D1054AFB79137000BF0C37BD4680BC704700BF686400404865004080B584B000AF78600023FB810C4B1B78002B10D031
:400AC00009E0FB897A6813441B781846FFF7D4FFFB890133FB81FB897A6813441B78002BEFD100BF1037BD4680BD00BF6D81FF1F80B400AF094A094B1B78DBB243F0010335
:400B0000DBB21370064A064B1B78DBB243F00103DBB2137000BFBD4680BC7047A2430040B243004000000000142816D902B4012114381049097811F0C001890904B40E4A01
:400B4000515C04BC00BF00BF00BF8841FDD500BF00BF02BC704700BF00BF70F10400FCD570470B050709EFF3108072B6704780F31088704700480040620B00000A2200215D
:400B800000F0BEB8014B1868704700BF3C81FF1F0E4B70B51E460E4C0025E41AA410A54204D056F8253098470135F8E700F096F9084B094C1E46E41AA4100025A54204D030
:400BC00056F8253098470135F8E770BDE80E0000E80E0000E80E0000F00E000010B5431E0A44914204D011F8014B03F8014FF8E710BD00002DE9F0470F4680463F48D0F833
:400C000000903D4615F8014B09EB0400407800F0080000F0FF0608B12F46F2E72D2C03D1BD1C7C78012603E02B2C04BF7C78BD1C13B1102B0AD15BE0302C57D1287800F090
:400C4000DF0058284DD16C7810230235002E14BF4FF0004C6FF0004CBCFBF3FA0027384603FB1ACC09EB040E9EF801E01EF0040F01D0303C0BE01EF0030E1BD0BEF1010FB6
:400C80000CBF4FF0370E4FF0570ECEEB0404A34210DDB7F1FF3F0AD0504506D801D1644503DC03FB0040012701E04FF0FF3715F8014BD7E77B1C0CD1002E4FF0220314BF75
:400CC0004FF000406FF00040C8F800302AB9BDE8F08706B1404272B107B1691E1160BDE8F0873024002BB1D10823AFE70A23ADE7302CA3D0AAE7BDE8F08700BF4081FF1F22
:400D000013460A46014602480068FFF773BF00BF3C81FF1F000000000A00000028000000300000003800000040000000480000004800000048000000480000006881FF1F4E
:400D40006881FF1F6881FF1F6881FF1F6881FF1F6881FF1F6881FF1F6881FF1F6881FF1F6881FF1F6881FF1F0000004808000048100400483004004810000048900000488D
:400D8000100100489001004810020048900200481003004890030048500400486004004870040048F004004870050048F005004870060048F006004870070048F007004863
:400DC00070080048F008004870090048F0090048700A0048F00A004843000020202020202020202028282828282020202020202020202020202020202020208810101010BA
:400E00001010101010101010101010040404040404040404041010101010101041414141414101010101010101010101010101010101010101011010101010104242424268
:400E40004242020202020202020202020202020202020202020210101010200000000000000000000000000000000000000000000000000000000000000000000000000066
:400E80000000000000000000000000000000000000000000000000000000000000000000000000000000000000000000000000000000000000000000000000000000000032
:400EC00000000000000000000000000000000000000000000000000000000000F8B500BFF8BC08BC9E467047ED0100008D070000F8B500BFF8BC08BC9E467047C9010000A8
:400F0000100F0000C880FF1F80000000280000000000000000366E01C05D0000180000000000E02E000000000000000000000000000000000000000000000000000000009C
:400F400000000000D80D000000000000000000000000000000000000000000000000000000000000000000000000000000000000000000000000000000000000000000008C
:400F800000000000DC80FF1FDA0D000000000000000000000000000000000000000000000000000000000000000000000000000000000000000000000000000000000000D0
:400FC00000000000000000000000000000000000000000000000000000000000000000000000000000000000000000000000000000000000000000000000000000000000F1
:4010000000000000000000000000000000000000000000000000000000000000000000000000000000000000000000000000000000000000000000000000000000000000B0
:401040000000000000000000000000000000000000000000000000000000000000000000000000000000000000000000000000000000000000000000000000000000000070
:401080000000000000000000000000000000000000000000000000000000000000000000000000000000000000000000000000000000000000000000000000000000000030
:020000040003F7
:0200000480007A
:4000000002000000040000008080000040000000000A010400000100020000050000000000000000010000080003000C00000100000000000000000001030004000300043B
:400040000100000F02000000000000080000110000000000000000000000000000000000000000000100000004040004000000010000000000000000000000000000000047
:4000800000000000000000000000000000000000000800000607010000070000070200010000000001080600000801000604010004080000020000000600000000010002DF
:4000C0000003000800040700000080000000000400000000000000000000000000000000000000000000021204040004000000010000000000000000000000000000000045
:4001000000000000000000000000000000000000000000000000000000000000000000000000000000000000000000000000000000000000000000000000000000000000BF
:4001400000000000000000000000000000000000600300000000000000FFFFFF00A00004180000000000000000000400000100014000C0004040C000C000C000C000C0001D
:400180000000000000000000000000000000000000000000000000000000000000000000000001000000000000000200000000000000000002000000020000000000000038
:4001C00002000000010000000000000000000000600200000000200119FFFFFF00AF0F04180080000000000004000404011100014000C0004040C000C000C000C000C000AA
:400200000000000000000000000000000000000000000001000020000002030000000000000000000C00710014010000DC002200100040000900D0001001AC000000000022
:400240000000E0001F030000002008000000000023060000000B0C0E15FFFFFF0000F0440C000000000000000404040000000001000000000000C0000000400200000000A5
:40028000000000000000000000000000000000001F000000000C03000004000004020000000F00100713180C1C1C02031C080100101F0000080000131803000000010420BD
:4002C0000020000F1F00001C000022080000000000000000000000000000000000000000000000000000000004040000000000010000000000000000000000000000000061
:40030000000000000000000000000000000000000000200000000300070058000301000012008402030100000000030100000300000020011C0000001C00000209008400AC
:40034000030120001C02C00000020000000044103604020001C0000E12FFFFFF62A0F0410C00000018000000040404040000000100000000000040020010301000101012DF
:40038000000000000000000000000000000000000000000007001800000030000000200000000000070038004000000032000C000000000000000D00000000000000000004
:4003C0004000000003003C002000800000001100020000000040000000FF07FF4020F0050800000000000000040004000000000140A84020000000000000000000000000D8
:40040000000000000000000000000000000000000000000000000000000000000000000000000000000000000F72000000000000000000000000000000000000000000003B
:40044000000000000000000000003800000000000100000000000000000000000100000003000000000000000000000001000200000000000000000000000000000000003C
:4004800080000000000000000000000000000000000000000000000000000000000000000000000000000000000000000000000000000000000000000000000000000000BC
:4004C0000000000000000000000000000000000000000000000000000000000000000000000000000200000000000000000000000200000000000000800000000000000078
:4005000000000000000000000000000000000000000000000000000000000000000000000000000000000000000000000000000000000000080000000000000000000000B3
:400540000000000000000000000000000000040000000000000001000000000000000000000000000000000000000000000000000000000000000000000000000000000076
:400580000000000000000000000000000000000000000000000000000000000000000000000000000000000400000000000000000000000000000000000000000000000037
:4005C00000000000000000000000000000000000000000000000000002000000000000000000000000000000000000000000000000000000000000000000000000000000F9
:4006000000000000000000000000000000000000000000000000000000000000000000000000000000000000000000000000000000000000000000000000000000000000BA
:400640000000000000000004000000000000000000000000000000000000000000000000000000000000000000000000000000000000000000000000000000000000000076
:40068000000000000000000000000000000000000000000000000000000000000000000000000000000000000000000000000000000000000000000000000000000000003A
:4006C000000000000200000000000000000000000000000000000000000000000000000000000000000000000000000000000000482880008000002440080A4000001900B9
:400700008214000000001000012500000000050200020004000000004000000800000000000A0020000000004000000000000C004908000000000800840000004001000004
:400740000000000800003000000100000000000002000004000000000000000000000000000000000000000000000000000000000A04800200000000028000000000000028
:4007800040141A40000101000000002400A820000408842000000000000000000000000000000000000000000000000000000000EF00EF002F0000000000050007000800CC
:4007C0002F000400000001000C000000000000000400000000000000000000000000000000000000000000000000000000000000088200000010200000080A0000001108D0
:4008000088001600000100244003082000101800000882000000000400A9000000001000800801200000002020001440000021000000000000002020000000000000001865
:400840000000000000004800000000000000101000000000000000000000000000000000000000000000000000000000000000000000000000000000000000000000000010
:40088000201402404000110000000020008168048C000000000800200000080200000000000040100000000000000000000000006D00E7007F00000000002F002F00AE0077
:4008C000600020000000000000000000000000000000000000000000000000000000000000000000000000000000000000000000400000200000E800000802040000110011
:4009000088000008000000200200020000008800080004440000002000810000000090000008402000000024021400400000210000000000000000000000000000000000F7
:4009400000000000000000000000080000008812000000000000000000148000000000009800000800000000000000000000000000000000000000000000000000000000A1
:400980000000000000000000000000000000000000000000000000000000000000000000000000000000000000000000000000007500A7004E000000000039006E00AF0077
:4009C000000000000000F200000000000000000000000000000000000000000000000000000000000000000000000000000000000000000000000000000000000000000005
:400A00000000000000000000000000000000000000000000000000000000000000000000000000004000000000000000000000000000000000000000000000000000000076
:400A40000000000000000000000000000000000000000000000000000000000000000000000000000000000000000000000000000000000000000000000204000000000070
:400A8000280000000000000040100410000000000000000000000000000000000000000000000000000000000000000000000000002000000000100020100000000000202A
:400AC00008201000000000000000000000000000000000000000000000000000000000000002000000000000000000000000000000000000000000000000000000000000BC
:400B000000000000000000000000000000000000000000000000000000000000000000000000000000000000000000000000000000000A00060000000000000000000000A5
:400B4000440024000000000000000000000000000000000000000000000000000000000000000000000000000000000000000000800040808000800000000000000B0B00B7
:400B80000000000004000006020002000000000000000000000000000000000000000000000000000000000000000000000000000000000000000000000000000000000027
:400BC00000000000000000000000000000000000000000000000000000000000000000000000000000000000000000000000000000000000000000000000000000000000F5
:400C000000000000000000000000000000000000000000000000000000000000000000000000000000000000000000000000000000000000000000000000000000000000B4
:400C40000000000000000000000000000000000000000000000000000000000000000000000000000000000000000000000000000000000000000000000000000000000074
:400C80000000000000000000000000000000000000000000000000000000000000000000000000000000000000000000000000000000000000000000000000000000000034
:0200000490006A
:0400000000004005B7
:0200000490105A
:04000000BC90ACAF55
:0200000490303A
:02000000245B7F
:0200000490402A
:4000000000000000000000000000000000000000000000000000000000000000000000000000000000000000000000000000000000000000000000000000000000000000C0
:400040000000000000000000000000000000000000000000000000000000000000000000000000000000000000000000000000000000000000000000000000000000000080
:400080000000000000000000000000000000000000000000000000000000000000000000000000000000000000000000000000000000000000000000000000000000000040
:4000C0000000000000000000000000000000000000000000000000000000000000000000000000000000000000000000000000000000000000000000000000000000000000
:0200000490501A
:0C00000000012E16106900012E1B34C4F4
:00000001FF